8=FIX.4.2|9=74|35=A|34=1|49=MASTERLNK|52=20150923-03:01:47.639|56=SPSA|98=0|108=30|141=Y|10=027|8=FIX.4.2|9=56|35=0|34=2|49=MASTERLNK|52=20150923-03:02:17.046|56=SPSA|10=187|8=FIX.4.2|9=56|35=5|34=3|49=MASTERLNK|52=20150923-03:02:37.640|56=SPSA|10=195|8=FIX.4.2|9=68|35=A|34=4|49=MASTERLNK|52=20150923-03:02:40.820|56=SPSA|98=0|108=30|10=230|8=FIX.4.2|9=56|35=0|34=5|49=MASTERLNK|52=20150923-03:03:10.063|56=SPSA|10=183|8=FIX.4.2|9=56|35=0|34=6|49=MASTERLNK|52=20150923-03:03:40.077|56=SPSA|10=192|8=FIX.4.2|9=56|35=0|34=7|49=MASTERLNK|52=20150923-03:04:10.093|56=SPSA|10=189|8=FIX.4.2|9=56|35=0|34=8|49=MASTERLNK|52=20150923-03:04:40.110|56=SPSA|10=183|8=FIX.4.2|9=56|35=0|34=9|49=MASTERLNK|52=20150923-03:05:10.125|56=SPSA|10=188|8=FIX.4.2|9=57|35=0|34=10|49=MASTERLNK|52=20150923-03:05:40.141|56=SPSA|10=230|8=FIX.4.2|9=57|35=0|34=11|49=MASTERLNK|52=20150923-03:06:10.157|56=SPSA|10=236|8=FIX.4.2|9=57|35=0|34=12|49=MASTERLNK|52=20150923-03:06:40.173|56=SPSA|10=238|8=FIX.4.2|9=57|35=0|34=13|49=MASTERLNK|52=20150923-03:07:10.188|56=SPSA|10=243|8=FIX.4.2|9=57|35=0|34=14|49=MASTERLNK|52=20150923-03:07:40.229|56=SPSA|10=243|8=FIX.4.2|9=57|35=0|34=15|49=MASTERLNK|52=20150923-03:08:10.276|56=SPSA|10=244|8=FIX.4.2|9=57|35=0|34=16|49=MASTERLNK|52=20150923-03:08:40.323|56=SPSA|10=241|8=FIX.4.2|9=57|35=0|34=17|49=MASTERLNK|52=20150923-03:09:10.370|56=SPSA|10=242|8=FIX.4.2|9=57|35=0|34=18|49=MASTERLNK|52=20150923-03:09:40.417|56=SPSA|10=248|8=FIX.4.2|9=57|35=0|34=19|49=MASTERLNK|52=20150923-03:10:10.019|56=SPSA|10=236|8=FIX.4.2|9=57|35=0|34=20|49=MASTERLNK|52=20150923-03:10:40.052|56=SPSA|10=228|8=FIX.4.2|9=57|35=0|34=21|49=MASTERLNK|52=20150923-03:11:10.085|56=SPSA|10=233|8=FIX.4.2|9=57|35=0|34=22|49=MASTERLNK|52=20150923-03:11:40.118|56=SPSA|10=234|8=FIX.4.2|9=57|35=0|34=23|49=MASTERLNK|52=20150923-03:12:10.151|56=SPSA|10=230|8=FIX.4.2|9=57|35=0|34=24|49=MASTERLNK|52=20150923-03:12:40.168|56=SPSA|10=242|8=FIX.4.2|9=57|35=0|34=25|49=MASTERLNK|52=20150923-03:13:10.180|56=SPSA|10=235|8=FIX.4.2|9=57|35=0|34=26|49=MASTERLNK|52=20150923-03:13:40.192|56=SPSA|10=242|8=FIX.4.2|9=57|35=0|34=27|49=MASTERLNK|52=20150923-03:14:10.204|56=SPSA|10=235|8=FIX.4.2|9=57|35=0|34=28|49=MASTERLNK|52=20150923-03:14:40.216|56=SPSA|10=242|8=FIX.4.2|9=57|35=0|34=29|49=MASTERLNK|52=20150923-03:15:10.228|56=SPSA|10=244|8=FIX.4.2|9=57|35=0|34=30|49=MASTERLNK|52=20150923-03:15:40.240|56=SPSA|10=233|8=FIX.4.2|9=57|35=0|34=31|49=MASTERLNK|52=20150923-03:16:10.252|56=SPSA|10=235|8=FIX.4.2|9=57|35=0|34=32|49=MASTERLNK|52=20150923-03:16:40.264|56=SPSA|10=242|8=FIX.4.2|9=57|35=0|34=33|49=MASTERLNK|52=20150923-03:17:10.276|56=SPSA|10=244|8=FIX.4.2|9=57|35=0|34=34|49=MASTERLNK|52=20150923-03:17:40.283|56=SPSA|10=246|8=FIX.4.2|9=57|35=0|34=35|49=MASTERLNK|52=20150923-03:18:10.289|56=SPSA|10=251|8=FIX.4.2|9=57|35=0|34=36|49=MASTERLNK|52=20150923-03:18:40.295|56=SPSA|10=252|8=FIX.4.2|9=57|35=0|34=37|49=MASTERLNK|52=20150923-03:19:10.301|56=SPSA|10=239|8=FIX.4.2|9=57|35=0|34=38|49=MASTERLNK|52=20150923-03:19:40.307|56=SPSA|10=249|8=FIX.4.2|9=57|35=0|34=39|49=MASTERLNK|52=20150923-03:20:10.313|56=SPSA|10=236|8=FIX.4.2|9=57|35=0|34=40|49=MASTERLNK|52=20150923-03:20:40.319|56=SPSA|10=237|8=FIX.4.2|9=57|35=0|34=41|49=MASTERLNK|52=20150923-03:21:10.325|56=SPSA|10=233|8=FIX.4.2|9=57|35=0|34=42|49=MASTERLNK|52=20150923-03:21:40.331|56=SPSA|10=234|8=FIX.4.2|9=57|35=0|34=43|49=MASTERLNK|52=20150923-03:22:10.337|56=SPSA|10=239|8=FIX.4.2|9=57|35=0|34=44|49=MASTERLNK|52=20150923-03:22:40.341|56=SPSA|10=238|8=FIX.4.2|9=57|35=0|34=45|49=MASTERLNK|52=20150923-03:23:10.344|56=SPSA|10=240|8=FIX.4.2|9=57|35=0|34=46|49=MASTERLNK|52=20150923-03:23:40.347|56=SPSA|10=247|8=FIX.4.2|9=57|35=0|34=47|49=MASTERLNK|52=20150923-03:24:10.350|56=SPSA|10=240|8=FIX.4.2|9=57|35=5|34=48|49=MASTERLNK|52=20150923-03:24:39.353|56=SPSA|10=004|