8=FIX.4.2|9=74|35=A|34=1|49=SPSA|52=20141003-08:32:06.602|56=MASTERLNK|98=0|108=30|141=Y|10=010|8=FIX.4.2|9=176|35=8|34=2|49=SPSA|52=20141003-08:32:19.586|56=MASTERLNK|1=714023400002|6=14.68|11=012014/10/03000001|14=100|17=1|20=0|31=14.68|32=100|37=1|38=100|39=2|54=1|55=2823|150=2|151=0|10=063|8=FIX.4.2|9=56|35=0|34=3|49=SPSA|52=20141003-08:32:49.852|56=MASTERLNK|10=195|